:020000040800F2
:1000000060060020450200084D0200084F0200086B
:1000100051020008530200085502000800000000C9
:10002000000000000000000000000000570200086F
:1000300059020008000000005B0200085D02000891
:100040005F0200085F0200085F0200085F0200080C
:100050005F0200085F0200085F0200085F020008FC
:100060005F0200085F0200085F0200085F020008EC
:100070005F0200085F0200085F0200085F020008DC
:100080005F0200085F0200085F0200080000000035
:100090000000000000000000000000005F020008F7
:1000A0005F0200085F0200085F0200085F020008AC
:1000B0005F0200085F0200085F0200085F0200089C
:1000C0005F0200085F0200085F0200085F0200088C
:1000D0005F0200085F0200085F02000800000000E5
:1000E0005F0200085F0200085F02000800000000D5
:1000F0000000000000000000000000005F02000897
:10010000000000005F0200085F0200085F020008B4
:1001100000000000000000000000000000000000DF
:100120005F0200085F0200085F0200085F0200082B
:100130005F02000800000000000000000000000056
:100140000000000000000000000000005F02000846
:100150005F0200085F0200085F0200085F020008FB
:100160005F0200085F0200080000000000000000BD
:10017000000000000000000000000000000000007F
:10018000000000005F020008000000000000000006
:100190005F02000800F002F800F044F814A696E8A8
:1001A000000CB244B344DA4501D100F03BF8BAE8A0
:1001B0000F000FA696E83000A5EB040504EB060738
:1001C000AAEB0704A7F101074FEA15154FEA34140B
:1001D000A4F10104AC4201D300F024F813F0010FA4
:1001E00018BFFB1A43F0010300F001F8DBE71847E2
:1001F000300200004002000070470000002300248D
:1002000000250026103A28BF78C1FBD8520728BF26
:1002100030C148BF0B6070471FB500F0F4F81FBD38
:1002200010B510BD00F031F81146FFF7F5FF00F0F2
:10023000B5F800F04FF803B4FFF7F2FF03BC00F08D
:1002400057F800000948804709480047FEE7FEE7E5
:10025000FEE7FEE7FEE7FEE7FEE7FEE7FEE7FEE776
:1002600004480549054A064B704700000103000891
:100270009501000860000020600600206002002058
:1002800060020020704770477047754600F02CF8F8
:10029000AE4605006946534620F00700854618B073
:1002A00020B5FFF7DDFFBDE820404FF000064FF01E
:1002B00000074FF000084FF0000BAC46ACE8C00957
:1002C000ACE8C009ACE8C009ACE8C00921F00701FE
:1002D0008D46704710B50446AFF300802046BDE858
:1002E0001040FFF7A8BF0000004870470000002042
:1002F00001491820ABBEFEE726000200704700004F
:100300004EF68851CEF20001086840F47000086093
:100310007047000043F64001C4F20201086840F44F
:100320000030086043F63001C4F20201086840F072
:10033000010008602021C4F202014FF4E04008608F
:100340000021C4F20201086840F08000086044F215
:100350000841C4F2000140F28360086044F20C419D
:10036000C4F20001086840F400500860086840F0DA
:100370000400086070470000FFE744F20040C4F248
:10038000000000688006002801D4FFE7F5E744F28A
:100390000440C4F200000068C0B2704780B582B06B
:1003A0000020019043F63001C4F20201086840F0D9
:1003B0000200086040F20041C4F20201086840F007
:1003C00010000860FFF7A6FFFFE7FFF7D5FF8DF8E5
:1003D00003009DF803004F2807D1FFE740F21841C2
:1003E000C4F2020104200860FFE79DF803004628DC
:1003F00008D1FFE740F21841C4F202014FF4802017
:100400000860FFE7E1E7F1EE100A4FF6FF71C0F276
:10041000C03120EA010040F04070E1EE100A704760
:10042000300400080000002060060000FC01000805
:040000050800019559
:00000001FF
